:020000040800F2
:10000000B8280020FD010008BF490008AB400008E7
:10001000BD490008390E00084153000800000000E7
:100020000000000000000000000000006501000862
:100030004D15000800000000A90100084D4E000801
:10004000170200081702000817020008170200082C
:10005000170200081702000817020008170200081C
:10006000170200081702000817020008B51100085F
:1000700017020008170200081702000817020008FC
:1000800017020008170200081702000817020008EC
:100090003D0E0008170200081702000817020008AA
:1000A000170200084D4F0008170200081702000849
:1000B0001702000817020008594F0008170200082D
:1000C00017020008170200081702000817020008AC
:1000D000170200083553000817020008170200082D
:1000E00017020008170200081702000800000000AD
:1000F0000000000000000000000000000000000000
:1001000000000000000000001702000817020008AD
:10011000170200081702000817020008170200085B
:10012000170200081702000817020008170200084B
:10013000170200081702000817020008170200083B
:10014000170200081702000817020008170200082B
:10015000DFF80CD000F08EFC00480047C9560008BC
:10016000B8280020224B19680868B0E8F00F80F327
:100170000988BFF36F8F4FF0000080F311884EF0B5
:100180000D0E70470000000006480068006880F30C
:10019000088862B661B6BFF34F8FBFF36F8F00DF81
:1001A00000BF00BF08ED00E0EFF30980BFF36F8FE1
:1001B0000F4B1A6820E9F00F106008B54FF050009F
:1001C00080F31188BFF34F8FBFF36F8F05F00EFEE2
:1001D0004FF0000080F31188BDE8084019680868F6
:1001E000B0E8F00F80F30988BFF36F8F704700BF4E
:1001F000D8000020EFF305807047000006488047D4
:1002000006480047FEE7FEE7FEE7FEE7FEE7FEE7FB
:10021000FEE7FEE7FEE7FEE7F94E000851010008A1
:100220002DE9F05F0546002092469B46884606462B
:10023000814640241BE0284641464746224600F0BE
:1002400020F853465A46C01A914110D31146184619
:10025000224600F059FB2D1A67EB01084F46224653
:100260000120002100F050FB17EB00094E41201E39
:10027000A4F10104DFDC484631462A464346BDE886
:10028000F09F202A04DB203A21FA02F00021704777
:1002900021FA02F3D040C2F12002914008431946EE
:1002A000704740EA01039B0703D009E008C9121F09
:1002B00008C0042AFAD203E011F8013B00F8013B20
:1002C000521EF9D27047D2B201E000F8012B491E4C
:1002D000FBD270470022F6E710B513460A460446E3
:1002E0001946FFF7F0FF204610BDF0B480EA010286
:1002F000D40F4200B2EB410F02D20246084611462B
:100300004A0042D0C30DDDB2C1F3C752AD1A202D51
:1003100035DAC1F3160141F4000204B15242C5F1CD
:10032000200602FA06F12A411044B3EBD05F23D035
:10033000C4B1012DA0EBC35009DCF0BC4FF000426A
:1003400002EAC352DBB200F5000000F007BB400038
:1003500000F1807000EBC350A0F1807040EAD170D2
:10036000490009E0490841EAC071A0EBC35000F51B
:100370000000400800EBC350F0BC00F0E6BA614258
:10038000012202EB4101001BF6E7F0BC704781F04F
:100390000041AAE780F00040A7E780EA010210B51B
:1003A00002F00043400022D04A001FD0010E01EBB2
:1003B0001261C0F35600C2F3560240F4000042F44A
:1003C0000002A0FB022000047F39140400D0401C6E
:1003D00050EA124001D44000491EC2B20C0604EBA0
:1003E000D010401C4008802A02D003E0002010BD3D
:1003F00020F00100002900DA0020184310BD30B4BD
:1004000080EA010202F0004530F0004221F0004095
:1004100013D090B1C30DD40DC2F31601C0F3160072
:10042000E41A41F4000140F400027D34914201D30A
:10043000641C00E04900002C02DA30BC0020704748
:100440004FF400000023914201D3891A034340086E
:100450004FEA4101F7D151B1914202D14FF0004131
:1004600005E002D24FF0010101E06FF0010103EB62
:10047000C450284430BC00F068BA2DE9FE4F8046D5
:1004800081EA0300C00F0C46009021F0004123F0E8
:100490000045B8EB0200A94105D2404621469046EE
:1004A0001C460B46024623F00040104347D0270D60
:1004B000C7F30A00C3F30A510290401A0190402882
:1004C0006BDAC3F3130040F4801B0098924620B10E
:1004D0000023D2EB030A63EB0B0B01985946C0F1E2
:1004E0004002504600F010FA06460D465046594666
:1004F000019A00F018FA10EB08006141002487EA25
:10050000115284EAE7731A4340D0009A62B3019A09
:10051000012A4FEA075215DC001B61EB02014FF084
:10052000004202EA0752CDE90042001C41F5801169
:1005300032462B4600F04FFA03B0BDE8F08F40463C
:100540002146F9E7001B61EB0201001C41F5801315
:1005500000185B412018A2F5001747EB030140EAA1
:10056000D570B6196D4111E06D084FEA360645EABF
:10057000C0754FEA0752001B61EB0201001C41F5F8
:10058000801149084FEA30000019514132462B468C
:1005900003B0BDE8F04F00F00FBA00980122400010
:1005A0000023D0EB020263EBE073009821464FEA90
:1005B000E074B8EB000061EB0401E9E783F000436D
:1005C0005BE781F0004158E72DE9FE4F81EA030423
:1005D00004F0004421F0004100944FF0000B23F0A0
:1005E000004350EA01045ED052EA03045BD0C3F337
:1005F0000A54C1F30A552C44A4F2F3340194A0FB2D
:100600000254C1F3130141F48011C3F3130343F403
:10061000801301FB024400FB034E840A970A44EA5C
:10062000815447EA8357A4FB076802958D0A05FBAE
:1006300007854FEA932C04FB0C542705029D4FEAD3
:10064000065847EA1637B5EB08056EEB070C870E20
:10065000920E47EA811742EA8312A7FB0201B6EB2A
:100660000B0164EB00042B0D43EA0C335E1844EBE2
:100670001C50DA465146E7FB0201C5F313044FEA6A
:100680000B3343EA14534FEA0432019C43EA060356
:10069000A4F10C040294009CCDE900B400F09BF995
:1006A00003B0BDE8F08F00200146F9E72DE9F04DD9
:1006B00081EA030404F0004B21F0004514464FF09A
:1006C000000A23F0004150EA050220D054EA01025A
:1006D0001DD0C5F30A570246C5F31303C1F3130037
:1006E000C1F30A5640F4801543F48013A7EB0608C3
:1006F000101BD64608F2FD3873EB050002D308F153
:10070000010801E092185B41B8F1000F03DA002004
:100710000146BDE8F08D00204FF480110646844666
:100720000EE0171B73EB050705D3121B63EB0503E4
:1007300006434CEA010C49084FEA300092185B412D
:1007400050EA0107EDD152EA030012D082EA040018
:1007500083EA0501084305D0101BAB4106D20122F4
:10076000002306E000224FF0004302E06FF0010298
:1007700053101AEB06004CEB085110EB0A0041EB4A
:100780000B01BDE8F04D00F017B970B521F0004342
:1007900003430CD0C1F30A550024D5EB040564EBE8
:1007A0000403D617AD1AB34102DB0020014670BD29
:1007B000201841EB025170BD96230022114600F033
:1007C000CDB80EB5C10F80EAE0700844CA07002119
:1007D00040F233438DE80E000A460B4600F0FBF86A
:1007E00003B000BD0EB540F2334102910021CDE9C6
:1007F00000110A460B4600F0EEF803B000BD20F0F1
:100800000040C10DC0F3160040F400007F2901DA5A
:1008100000207047962903DCC1F19601C84070475B
:1008200096398840704770B5C1F30A5201F000450F
:100830000024C1F3130140F2FF3341F480119A42C6
:1008400001DA002070BD40F233439A42A2F23342F3
:1008500003DC5242FFF715FD00E090402C43F1D03D
:10086000404270BDC1F30A5210B5C1F3130140F20A
:10087000FF3341F480119A4201DA002010BD40F2AA
:1008800033439A42A2F2334203DC5242FFF7F9FCAF
:1008900010BD904010BD00F0004230F000400AD082
:1008A000C10D01F56071C0F3160042EA0151C208A2
:1008B00040071143704700200146704701F0004394
:1008C00030B421F0004150EA010206D00A0DA2F531
:1008D0006072C1F31301002A02DC30BC00207047B3
:1008E000440F44EAC104C100E01830BC00EBC25020
:1008F00000F02BB8002801DBC0F10040002901DB2B
:10090000C1F1004181427047202A04DB203A00FAFD
:1009100002F1002070479140C2F1200320FA03F356
:10092000194390407047202A06DBCB17203A41FA42
:1009300002F043EAE07306E041FA02F3D040C2F16C
:10094000200291400843194670470029A8BF70470C
:10095000401C490008BF20F00100704710B4B0FAF5
:1009600080FC00FA0CF050EA010404BF10BC704790
:1009700049B1CCF1200421FA04F411FA0CF118BFAA
:10098000012121430843A3EB0C01CB1D4FEA006179
:100990004FEA102042BF002010BC704700EBC3504C
:1009A00010440029A4BF10BC7047401C490008BF78
:1009B00020F0010010BC704710B5141E73F1000444
:1009C00008DA401C41F1000192185B411A4301D141
:1009D00020F0010010BD2DE9F04D92469B4611B16B
:1009E000B1FA81F202E0B0FA80F220329046FFF7CD
:1009F0008BFF04460F4640EA0A0041EA0B015346CA
:100A00005A46084313D0114653EA010019D0C8F1E1
:100A100040025046FFF735FC05460E465046594603
:100A20004246FFF771FF084305D0012004E020464D
:100A30003946BDE8F08D0020054346EAE0762C43B8
:100A400037430A986305E40AA0EB08000022FD0A78
:100A500044EA47540A3002D500200146E9E701057F
:100A600010196941DDE9084500196941BDE8F04DFB
:100A7000A2E70000064C074D06E0E06840F00103E5
:100A800094E8070098471034AC42F6D3FFF764FBB4
:100A9000E06100080062000830B58C1810F8012BE6
:100AA00012F00F0301D110F8013B120906D110F822
:100AB000012B03E010F8015B01F8015B5B1EF9D12B
:100AC00001E001F8013B521EFBD1A142E6D3002018
:100AD00030BD000070B5044600688168C943C9078D
:100AE0001CD1816821F00101816002F063F80546A4
:100AF0000FE000BF02F05EF8401B022809D9A06A8F
:100B000040F01000A062E06A40F00100E0620120C5
:100B100070BD20688068C043C007EBD0002070BD66
:100B200010B50146406A826A12F0500F05D0006A83
:100B3000026BBDE8104008461047816A41F400711D
:100B4000816201688968C1F3424107290CD1017BA8
:100B500051B9816A21F480718162816AC90403D428
:100B6000816A41F00101816200F05EFF10BD10B5A5
:100B7000406A816A41F040018162C16A41F004012A
:100B8000C16200F053FF10BD10B5406A00F04DFF88
:100B900010BD0000F8B50026044600960068816884
:100BA000C943C90728D0816841F001018160134819
:100BB00013490068B0FBF1F000E0401E00900028EF
:100BC000FBD101F0F7FF054611E000BF01F0F2FF95
:100BD000401B02280BD9A06A40F01000A062E06A16
:100BE00040F00100E06284F824600120F8BD206834
:100BF0008068C043C007E9D10020F8BDD4000020C0
:100C000040420F001CB555208DF804006946FF20B6
:100C100000F0F2F89DF80000552810D001A9FF203F
:100C200000F0FAF8322001F0B1FE6946FF2000F032
:100C3000E3F89DF80000552801D001201CBD0020DC
:100C40001CBD00000025DFF83081DFF83091DFF8AF
:100C500030A1DFF830B12E46B8F844706D1CADB24B
:100C6000A8F844603846FFF7BDFD474A474BFFF7F9
:100C7000ABFCFFF723FE04464549FFF78EFBFFF769
:100C8000BEFDA9F8000054450BDB4248007801285E
:100C900007D03B48404940422044884204D23F4864
:100CA00022E03F48068022E0A4F180404FF480011A
:100CB000884201D23B4817E03B482044884201D299
:100CC0003A4811E0A4F181404FF40011884201D26A
:100CD000374809E037482044884201D2364803E0CB
:100CE0003648844203DB364801882D480180BBF832
:100CF0000000B0F5FA7F11D83248007B70B11E2D8C
:100D000007D93148314900680A68904201D000256E
:100D100008604FF47A7004F019FD9DE72C480088B4
:100D2000FFF760FD2B4A2C4BFFF74EFCFFF7C6FD8B
:100D30002A49044608603846FFF73EFD2146FFF782
:100D40002CFBFFF7A8FD264A264BFFF73DFC264A61
:100D5000264BFFF739FCFFF7B1FD2549FFF71DFBD7
:100D6000FFF74DFD234900250A6802440A60164931
:100D70000A6810440860CCE77C0100200C000020C9
:100D8000CDCCCC3D0E00002030B2E30DD080A13F91
:100D9000000020411F000020333333026A0000208E
:100DA000200000206C0000200000C0BF6E0000206A
:100DB00070000020000060BF720000200000C040F2
:100DC000740000203C0100207C00002080000020F6
:100DD000540000207B14AE47E17A843F9800002045
:100DE00000838BB20ADDED3E3D0AD7A3703D024081
:100DF0000000C842780000200EB501234FF6FF72B4
:100E0000CDE9001302920246A121024801F092FFAF
:100E10000EBD0000700300200EB501234FF6FF72D7
:100E2000CDE9001302920246A021024802F092F896
:100E30000EBD000070030020FEE70000014801F035
:100E4000C4B8000078020020164810B5164A0021E8
:100E5000C0E90012C16004218160082101611348CA
:100E600001781348031F0170124902460978417046
:100E700011490978817011490978C17010490978C0
:100E80000171FF2141718171C171064901F1340085
:100E900000F03CFF002803D0BDE8104000F0E2BBAA
:100EA00010BD000044020020E0F501030600002010
:100EB0008800002007000020080000200900002012
:100EC0001C000020154810B5154A0021C0E9001289
:100ED000C160042181600821016112480188124823
:100EE0000A0A031F02704170104909880A0A8270B9
:100EF000C1700F49898B0A0A02714171FF2181710A
:100F0000C1710649024601F1340000F0FFFE0028DD
:100F100003D0BDE8104000F0A5BB10BD4402002086
:100F2000E0F502030C000020880000200A000020E9
:100F30003C010020144810B5144A0021C0E90012F9
:100F40000422C0E90221082101611148018B1148E6
:100F50000B0A03704170FF2181701421C17002716E
:100F60001B21417103218171C1710749031F024691
:100F700001F1340000F0CAFE002803D0BDE81040A3
:100F800000F070BB10BD000044020020E0F5030338
:100F90003C01002088000020154810B5154A0021AA
:100FA000C0E90012C16004218160134A0821016177
:100FB000116A02F130000B0E03700B0C43700B0A28
:100FC0008370C170516A031F0A0E02710A0C4271CC
:100FD0000A0A8271C1710649024601F1340000F02B
:100FE00095FE002803D0BDE8104000F03BBB10BDCB
:100FF00044020020E0F5040358000020164810B514
:10100000164A0021C0E90012C16004218160082154
:1010100001611348018813480A0A031F02704170D6
:10102000114909880A0A8270C170104909880A0AA0
:10103000027141710E4909880A0A8271C17106491B
:10104000024601F1340000F061FE002803D0BDE843
:10105000104000F007BB10BD44020020E0F505037E
:101060001000002088000020160000201200002040
:1010700018000020154810B5154A0021C0E90012DB
:10108000C160042181600821016112480188124871
:101090000A0A031F02704170104909880A0A827007
:1010A000C1700F4909880A0A02714171FF218171DB
:1010B000C1710649024601F1340000F027FE002804
:1010C00003D0BDE8104000F0CDBA10BD44020020AE
:1010D000E0F5060314000020880000201A0000201C
:1010E0000E00002000B58BB000210122CDE90612D0
:1010F0000591009101910291039104910E21CDE996
:101100000821694600F066FE084801F0D9F910B1DF
:1011100007A004F03DF90221044800F0E5FD002895
:1011200002D007A004F034F90BB000BD7802002013
:10113000BFAAC6F443414ECAA7B0DC0D0A000000A6
:10114000BFAAC6F4B9D2C6F0D6D0B6CED4CAD0EDB6
:10115000CAA7B0DC0D0A0000154D0024641CA4B21F
:10116000642004F0F3FAFFF76FFE0A2004F0EEFAB1
:10117000FFF7A8FE0A2004F0E9FAFFF7DBFE0A20D9
:1011800004F0E4FAFFF708FF0A2004F0DFFAFFF7A3
:1011900035FF0A2004F0DAFAFFF76CFF322004F082
:1011A000D5FA052CDAD92878C04328700024D5E771
:1011B000C4000020014801F04FBA000000020020E6
:1011C00030B590F840500124AC40C56B6C600468A9
:1011D00063604368102B036803D099600068C260A5
:1011E00030BD9A600068C16030BD00001FB5DFF8F7
:1011F000E892DFF8E8A200244FF0010BB848641C25
:10120000A4B20288B74D2968114429604188B64EBE
:101210003268114431608288B44F396811443960B2
:10122000C288DFF8CC82D8F800301A44C8F8002011
:101230000189D9F8002005201144C9F80010B4FB39
:10124000F0F100FB114058B903F0EEFC03F0B8FBDD
:101250000020286030603860C8F80000C9F800003D
:101260001420B4FBF0F100FB114000287ED1A14E08
:1012700012220025B08FC0EB00108000B0FBF2F00E
:101280009D4A80B2A0F5C861108040F26C72B587AB
:10129000914203D941F29411884203D3974981F8CE
:1012A00000B001E09548057095480088FFF79AFA6C
:1012B000944A954BFFF788F9FFF700FBDFF84C8263
:1012C000934A944EC8F8000003908A481288818897
:1012D000C1EB01118900B1FBF2F18FB2378085803B
:1012E0008189C1EB01118A008B490988B2FBF1F1B8
:1012F0008AB28A490A8002928581818AC1EB0111F2
:101300008A0087490988B2FBF1F1864A11808582FB
:1013100085480088FFF766FA844A854BFFF754F941
:10132000FFF7CCFA019083480088FFF75BFA7F4A09
:101330007F4BFFF749F9FFF7C1FA0090B7F5FA7F45
:1013400028D93846FFF738FA0099FFF726F80746FC
:101350000298FFF731FA3946FFF751F80399FFF782
:10136000C9FA14D33088FFF727FA00E0ACE00199FE
:10137000FFF713F807466B480088FFF71DFA394658
:10138000FFF73DF8D8F80010FFF7B4FA02D28AF858
:10139000065001E08AF806B05648818BC1EB011176
:1013A0008A005D490988B2FBF1F18AB262490A807C
:1013B000029285835A4A818CC1EB011112888900FF
:1013C000B1FBF2F15D4A118085843088B0F5FA7F77
:1013D00026D9FFF7F1F90099FEF7DFFF07460298DB
:1013E000FFF7EAF93946FFF70AF84746D8F8001040
:1013F000FFF780FA11D33088FFF7DEF90199FEF785
:10140000CCFF02904D480088FFF7D6F90299FEF70D
:10141000F6FF3968FFF76EFA02D28AF8075001E04A
:101420008AF807B03348474F818DC1EB01118A001C
:1014300039490988B2FBF1F1414A89B21180029120
:101440008585374A818EC1EB011112888900B1FB75
:10145000F2F1398085863088B0F5FA7F26D9FFF71A
:10146000ABF90099FEF799FF06460298FFF7A4F939
:101470003146FEF7C4FFD8F80010FFF73BFA12D34D
:1014800024480088FFF798F90199FEF786FF064681
:101490003888FFF791F93146FEF7B1FFD8F8001010
:1014A000FFF728FA02D28AF8085001E08AF808B05B
:1014B0009AF807109AF8082049009AF8060001EBFC
:1014C00082010844204908700A2004F03FF9142CD6
:1014D000FFF494AE002491E6400000203C0100207F
:1014E000C40100203000002034000020380000201B
:1014F0003C0000207C0100200A00002003000020A6
:10150000760000207B14AE47E17A843FA0000020E3
:10151000640000200E000020660000201000002063
:101520006800002016000020600000202D431CEB06
:10153000E2361A3F6200002012000020180000204E
:10154000140000201A0000201C000020704700003A
:101550001CB555208DF80400FFF754FB00283AD045
:101560001EA000BF03F014FF6946F020FFF744FC03
:101570009DF800101FA003F00BFF9DF800005528F8
:1015800012D01FA003F004FF01A9F020FFF744FCD4
:101590000A2004F0DBF86946F020FFF72DFC9DF8E7
:1015A000001014A003F0F4FE12208DF8040001A92D
:1015B0001420FFF731FC012004F0C8F8694614201C
:1015C000FFF71AFC15489DF8001001800A4614A088
:1015D00003F0DEFE1CBD1CA0C4E700004154323401
:1015E0004358585F436865636B20206661696C21CE
:1015F0000D0A000074656D703D25780D0A0000002D
:101600004E657720626F6172642C20496E69742088
:10161000454550524F4D210D0A000000600000204A
:101620004261636B5472616E736D697373696F6E3F
:10163000526174696F5F43616E3D25642C74656D02
:10164000703D25640D0A0000415432344358585F00
:10165000436865636B202073756363657373210D45
:101660000A00000070470000074D4FF400544FF48B
:10167000FA76064801F05DFD2146284601F08DFA14
:10168000304604F063F8F4E7000C0140A0020020AB
:1016900010B501210E4801F07BFA0E4900224B8A59
:1016A000834211D10B8A5B1C9BB20B82022B0AD3A3
:1016B0000A82012807D1C88A002804D1888A401CE0
:1016C00088820120C88210BD48820A82CA8210BD69
:1016D000000801407C01002010B502210E4801F0F5
:1016E00057FA0E4900224B8C834211D10B8C5B1CA4
:1016F0009BB20B84022B0AD30A84012807D1C88C21
:10170000002804D1888C401C88840120C88410BD26
:1017100048840A84CA8410BD000801407C0100206E
:1017200010B504210E4801F033FA0E4900224B8E09
:10173000834211D10B8E5B1C9BB20B86022B0AD30A
:101740000A86012807D1C88E002804D1888E401C43
:1017500088860120C88610BD48860A86CA8610BDC4
:10176000000801407C01002010B508210E4801F05E
:101770000FFA0E4900224B89834211D10B895B1C61
:101780009BB20B81022B0AD30A81012807D1C88999
:10179000002804D18889401C88810120C88110BD9F
:1017A00048810A81CA8110BD000801407C010020E7
:1017B00010B540210E4801F0EBF90E4900224B8B89
:1017C000834211D10B8B5B1C9BB20B83022B0AD380
:1017D0000A83012807D1C88B002804D1888B401CBC
:1017E00088830120C88310BD48830A83CA8310BD43
:1017F000000801407C01002010B580210E4801F056
:10180000C7F90E4900224B8D834211D10B8D5B1C11
:101810009BB20B85022B0AD30A85012807D1C88DFC
:10182000002804D1888D401C88850120C88510BD02
:1018300048850A85CA8510BD000801407C0100204A
:1018400010B501210E4801F0A3F90E4900224B8882
:10185000834211D10B885B1C9BB20B80022B0AD3F5
:101860000A80012807D1C888002804D18888401C34
:1018700088800120C88010BD48800A80CA8010BDC1
:10188000000C01407C01002010B502210E4801F03F
:101890007FF90E4900224B8F834211D10B8F5B1CC5
:1018A0009BB20B87022B0AD30A87012807D1C88F66
:1018B000002804D1888F401C88870120C88710BD6C
:1018C00048870A87CA8710BD000C01407C010020B0
:1018D00010B54FF40071134801F05AF91249002273
:1018E000B1F84230834216D1B1F840305B1C9BB254
:1018F000A1F84030022B0DD3A1F84020012809D1D6
:10190000B1F84600002805D131F8440F401C08808A
:101910000120488010BDA1F8420021F8402FCA8064
:1019200010BD0000000C01407C010020F8B500242F
:10193000009490F824202546012A12D0012280F834
:1019400024204A681F23072A0DD20668776B521E8F
:1019500002EB820293409F430B6893401F437763DF
:1019600019E00220F8BD06680D2A0AD2376BD21F93
:1019700002EB820293409F430B6893401F433763FF
:1019800009E0F76A0D3A02EB820293409F430B682D
:1019900093401F43F7620A68072306680A2A0AD39E
:1019A000F7680A3A02EB420293409F438B689340E8
:1019B0001F43F76008E0376902EB420293409F4300
:1019C0008B6893401F4337610A68102A01D0112A9F
:1019D00020D1124B02689A4217D193681B0219D486
:1019E000936843F4000393600968102912D10C49ED
:1019F0000C4A0968B1FBF2F101EB8101490000E0FA
:101A0000491E00910029FBD104E0816A41F02001C8
:101A10008162012480F824502046F8BD0024014052
:101A2000D400002040420F0070477047704700000C
:101A30002DE9F0414FF0000704003D467ED0A06A3A
:101A4000002628B9E66284F82460204600F07EF87B
:101A50002046FFF73FF8A16A01F01001014304D0CE
:101A6000A06A40F01000A06268E0A16A21F48851E9
:101A700041F00201A1626268E169237B0A4347EAFF
:101A800043010A43A1684FF48077B94208D0012985
:101A900006D0002194F814C0BCF1010F02D00AE076
:101AA0003946F7E7F3B1A36A43F02003A362E36A80
:101AB00043F00103E3622368D3F804C02CF4694CBB
:101AC0004CEA010CC3F804C023689968DFF870C0C1
:101AD00001EA0C0111439960A168B9420BD00129B8
:101AE00009D00CE0DFF85CC0A3690CEB43330B4377
:101AF00043F40061DFE7218A0D05A5F58015216813
:101B0000CB6A23F470032B43CB62216889680E4BA8
:101B10001940914208D1E662A16A21F0020141F028
:101B20000101A162BDE8F081A06A20F0020040F04E
:101B30001000A062E06A40F00100E0620120F1E7DD
:101B4000FDF7E1FF00E0FFFFFE0E1FFF70B586B05E
:101B500000260546009601960296039600681A49EB
:101B600088422FD11949886940F4007088618869DA
:101B700000F400700490886940F010008861886962
:101B8000694600F010000490372000900320019077
:101B90000F4800F00DFF104C0E48C4E900068020ED
:101BA000C4E9026040002061800060612020A061E3
:101BB0000002E061204600F073FE08B1FFF752FD1D
:101BC0002C62656206B070BD002401400010024026
:101BD0000010014008000240000200202DE9F047FB
:101BE000894604463B4900683B4F0E1D904688429B
:101BF00001D0B84207D1306810F4702F03D001250E
:101C00002846BDE8F08794F8240001280CD0012074
:101C100084F824002046FEF7BDFF05004FF00000C9
:101C200004D084F82400EBE70220EAE7A16A40F63A
:101C30000162914341F48071A1622168B94218D1D7
:101C4000326812F4702F14D0A16A41F48011A1629D
:101C50003168490505D5A16A21F4005141F480514C
:101C6000A162A16AC9040AD5E16A21F00601E16214
:101C700006E0A26A22F48012A2624968E9E7E06203
:101C800084F82400216A15488862216A1448C862D1
:101C9000216A1448086321686FF002000860206818
:101CA000816841F480718160216843464A464C3125
:101CB000206A00F033FE20688168C1F342410729A1
:101CC000816803D041F48011816099E741F4A0015B
:101CD000FAE700000024014000280140210B000821
:101CE000890B00086F0B000890F82020012A07D00C
:101CF000022A05D0416A41F48021416201207047E7
:101D0000006842690A43426100207047F0B590F8CC
:101D100020500468A468012D05D0022D03D0416A2B
:101D200041F4802153E014F0406F01D1E5004BD520
:101D3000C4F30164022C03D9416A41F4000146E076
:101D40000125A5401D608D684FF4C0739DB1CE681C
:101D500035434E6845EAC605066803EB0417F5519E
:101D60004FF4C275076805EB04150E697E51097DB5
:101D7000012905D009E00E88CD6845EA4655EBE714
:101D800001684E5946F480764E511179D2F80550CB
:101D90004FF4C67641EA0525016806EB04168D511D
:101DA0001178D2F801204FF4C47541EA022102688B
:101DB00005EB04155151006803EB0411425842F041
:101DC000010242500020F0BD416A41F4001141621D
:101DD0000120F0BD10B590F82020012A07D0022A7A
:101DE00005D0416A41F480214162012010BD3B4889
:101DF000D0F8002242F00102C0F80022D0F8002200
:101E000022F47C52C0F80022D0F800224B6A42EA49
:101E10000322C0F800220A7D02F01F0301229A402B
:101E2000D0F81C329343C0F81C32CB69B3B9D0F858
:101E30000C329343C0F80C328C894B6864F31F4317
:101E40004C6900EBC404C4F840320C890B6864F39D
:101E50001F434C6900EBC404C4F84432CB69012B26
:101E600016D1D0F80C321343C0F80C320C884B68F2
:101E700064F31F434C6900EBC404C4F840320C897E
:101E8000CB6864F31F434C6900EBC404C4F84432CC
:101E90008B69002BD0F804320ED01343C0F8043203
:101EA0000B69002BD0F8143208D01343C0F8143259
:101EB000096A012904D008E09343EFE79343F5E76B
:101EC000D0F81C121143C0F81C12D0F8001221F0F7
:101ED0000101C0F80012002010BD000000640040A5
:101EE000704730B590F82040012C05D0022C03D06B
:101EF000416A41F480215DE00468002955D02469DD
:101F0000A40754D04FF4D874056804EB01142D597C
:101F100015F00405956005682D594ED0ED08556003
:101F200005682C5904F00204D4604FF4DA74056893
:101F300004EB01142D5905F00F05156105682D59A5
:101F4000C5F30725956105682C59240C54614FF49D
:101F5000DC72046802EB0112A4581C700468A458D7
:101F6000240A5C700468A458240C9C700468A2586D
:101F7000120EDA704FF4DE72046802EB0112A458FC
:101F80001C710468A458240A5C710468A458240CC9
:101F90009C710468A258120EDA71006881B101695F
:101FA00041F020010161002030BDE468A8E7416AEA
:101FB00041F400114162012030BD6D0D1560AFE7A5
:101FC000C16841F02001C160EDE72DE9F05F0546F1
:101FD000006800244669D0F804908768D0F80CB0F7
:101FE000D0F810A0D0F81880F10748D0F90714D025
:101FF00001218160B80703D5284600F08EFA0CE075
:10200000780702D54FF4006407E0380702D54FF493
:10201000805402E0284600F07FFAF80516D52968BA
:102020004FF480708860B80503D5284600F077FA31
:102030000CE0780502D544F4005407E0380502D5D9
:1020400044F4804402E0284600F068FAF80316D50C
:1020500029684FF480308860B80303D5284600F023
:1020600060FA0CE0780302D544F4004407E038033A
:1020700002D544F4803402E0284600F051FA3007DB
:1020800007D55FEACB6004D52968102044F40074BA
:10209000C86070074FF0080707D55FEA0B7004D5DA
:1020A0002868C760284600F059F9B00706D52868A7
:1020B000C068800702D0284600F052F9700607D5A4
:1020C0005FEACA6004D52968102044F4806408617E
:1020D000B00607D55FEA0A7004D52868076128466C
:1020E00000F0EAF9F00606D528680069800702D0FA
:1020F000284600F0E2F9B00308D55FEAC96005D5CB
:10210000296810204860284600F0D8F9F00307D568
:102110005FEA097004D528684760284600F002FA93
:10212000300446D55FEA497040D5F00504D55FEA32
:10213000C87001D044F00104B00504D55FEA88708E
:1021400001D544F00204700504D55FEA487001D55A
:1021500044F00404300529D518F0700F26D008F09B
:102160007000402815D006DC102809D020280AD09D
:10217000302816D10AE050280ED0602811D10EE088
:1021800044F008040DE044F010040AE044F0200498
:1021900007E044F0400404E044F0800401E044F42B
:1021A00080742868816921F07001816129680420A8
:1021B0004860002C05D0686A204368622846FFF713
:1021C0008FFEBDE8F09F70B5040003D094F82000A6
:1021D00010B104E0012070BD204600F081F82068B5
:1021E000016821F00201016000F0E4FC05460526CB
:1021F00004E000F0DFFC401B0A2811D8206840688A
:102200008007F6D42068016841F00101016000F008
:10221000D1FC05460BE000F0CDFC401B0A2806D996
:10222000606A40F40030606284F82060D2E7206881
:102230004068C007EFD0207E0128206801683DD0AB
:1022400021F080010160607E01282068016838D09B
:1022500021F040010160A07E01282068016833D090
:1022600021F020010160E07E0128206801682ED065
:1022700041F010010160207F01282068016829D009
:1022800021F008010160607F01282068016824D0E6
:1022900021F004010160D4E902010843D4E90412E9
:1022A000114308436168491E08432168C861002042
:1022B0006062012084F82000002070BD41F08001A0
:1022C000C0E741F04001C5E741F02001CAE721F035
:1022D0001001CFE741F00801D4E741F00401D9E74C
:1022E00010B586B000210091019102910391006820
:1022F000174988422AD11748C16941F00071C1616C
:10230000C16901F000710491816941F004018161AA
:102310008069114C00F0040004904FF400600090BC
:102320006946204600F044FBA01400900220019072
:10233000032003906946204600F03AFB0022052165
:10234000142000F083FF142000F072FF06B010BDCF
:102350000064004000100240000801407047000087
:102360002DE9F0414E4B4F4A0021FFF7BAFD18B15D
:10237000BDE8F041FFF776B94A4B0022484899681A
:1023800004291ED1484E5C688F03A51BA0F13801BB
:10239000B4423BD008DC454D64190ED0BC4211D08C
:1023A000B4F5403F74D126E0BD4244D0B5F5003FBE
:1023B00053D0B5F5A02F6BD164E00478E40767D063
:1023C0000A6265E04478057804EB05240C81C47842
:1023D000857804EB05244C814479057904EB0524C8
:1023E000CC83C179847901EB0421314C2180314CBB
:1023F000012121704CE04479057904EB05244C83DC
:10240000C479857904EB05248C8341E04478057810
:1024100004EB05244C82C478857804EB05248C8277
:102420004479057904EB0524CC82C479857904EBE1
:1024300005240C832CE04479057904EB05248C8079
:10244000C479857904EB0524A4B2A4F11F05CC80DE
:10245000452D00D964244C801AE04478057804EBBB
:1024600005240C80C478857804EB05248C8144799C
:10247000057904EB0524CC81C479857904EB052426
:102480000C8205E00478E40702D00A624A628A629C
:1024900000214254491C0829FBDB5A60BDE8F08149
:1024A000900000205C020020F5E004030B1FFFFCFD
:1024B0002E000020A40000207047704770470000E5
:1024C00070B5044690F82000012804D0606A40F4FA
:1024D0000020606218E0022084F820002068016873
:1024E00021F00101016000F065FB05460EE000BF30
:1024F00000F060FB401B0A2808D9606A40F40030F5
:102500006062052084F82000012070BD20684068CA
:10251000C007EDD1606270BD70477047704770476B
:1025200070477047704700002DE9F05F90F8211068
:102530000024022903D004218163012485E001687D
:102540000A6822F00E020A6001680A6822F001029D
:102550000A603F4E3E4FB215DFF8F4C0DFF8F0904E
:10256000DFF8ECA0DFF8E8B0DFF8E4E00168783FDE
:1025700013011502ACF1640CA9F15009AAF13C0A4F
:10258000ABF1280BAEF1140E4FF48018B14227D9ED
:10259000B9420ED0614512D049451DD0514518D0E1
:1025A000594518D0714501D1424615E0294EB14236
:1025B00001D1012210E0274E1436B14201D1102280
:1025C0000AE0244E2836B14206D0224A3C329142DB
:1025D00001D11A4600E02A461E49091F0A602BE075
:1025E000B94213D0614517D0494522D051451DD07D
:1025F00059451DD0714501D142461AE0B14202D180
:102600004FF0807215E0134EB14201D1012210E06B
:10261000104E1436B14201D110220AE00D4E283678
:10262000B14206D00B4A3C32914201D11A4600E039
:102630002A46074980394A60012180F8211000218B
:1026400080F82010416B01B188472046BDE8F09F1B
:1026500080000240080402402DE9F05FC16B0A6867
:1026600001680B68046C4FF0040808FA04F8844D04
:10267000844E854FDFF814C2DFF81492DFF814A2FD
:10268000DFF814B2DFF814E218EA020F65D05FEA4F
:10269000437862D50A68920603D40A6822F00402DD
:1026A0000A60DFF8F0814FF48062016808F11408D5
:1026B00013011402414524D9A9420DD0B1420FD0D3
:1026C000B9421AD0614515D0494515D0514501D1BF
:1026D000120312E0594501D104220EE0714501D1E7
:1026E00040220AE06D4D1435A94206D06B4A2832CB
:1026F000914201D11A4600E022466749091F0A604B
:1027000029E0A94213D0B14215D0B94220D0614589
:102710001BD049451BD0514502D14FF4800217E030
:10272000414502D14FF0806212E0594501D10422A7
:102730000EE0714501D140220AE0584D1435A942FE
:1027400006D0564A2832914201D11A4600E022466C
:102750004B4908394A60C16A71E04FF0020808FA33
:1027600004F818EA020F70D05FEA83786DD50A6822
:10277000920606D40A6822F00A020A60012180F853
:102780002110DFF810814FF40072016808F114087D
:1027900013011402414524D9A9420DD0B1420FD0F2
:1027A000B9421AD0614515D0494515D0514501D1DE
:1027B000120312E0594501D102220EE0714501D108
:1027C00020220AE0354D1435A94206D0334A28327A
:1027D000914201D11A4600E022462F49091F0A60A2
:1027E00029E0A94213D0B14215D0B94220D06145A9
:1027F0001BD049451BD0514502D14FF4001217E0C0
:10280000414502D14FF0007212E0594501D1022238
:102810000EE0714501D120220AE0204D1435A94275
:1028200006D01E4A2832914201D11A4600E02246C3
:10283000134908394A60002180F82010816A002974
:102840001CD0BDE8F05F0847FFE70825A54015420A
:1028500014D01A0712D50A6822F00E020A6090F806
:102860004020C36B012101FA02F25A60816380F8B3
:102870002110002180F82010016BE0E7BDE8F09FF7
:10288000080002401C0002403000024044000240A8
:10289000580002406C000240080402401C04024040
:1028A00030B560B11A4B026814219A4209D2194B13
:1028B0001344B3FBF1F18900016417490AE00120D8
:1028C00030BD134B5B421344B3FBF1F1890001644B
:1028D0000F490839C163022180F82110136843F6BB
:1028E000F0718B43F0E901142143D0E902452C43F8
:1028F00021430469214344692143846921431943E5
:10290000116000214163012242770177084630BD02
:1029100008040240F8FFFDBF0000024070B5044605
:1029200090F82000002501280CD0012084F8200018
:1029300094F821600020012E06D084F820000225A2
:10294000284670BD022070BD022684F82160A06375
:102950002068066826F0010606602046FEF730FC77
:10296000E06A00282068016802D041F00E0106E00C
:1029700021F0040101602068016841F00A01016052
:102980002068016841F001010160D9E770B5044693
:1029900000F010F90546601C02D004480078044499
:1029A00000F008F9401BA042FAD370BDC800002017
:1029B0002DE9F84FDFF8B891002409F1040A0AF173
:1029C000040B23460F270BF1040EC9E00125A54097
:1029D0002A40AA427DD1674ED1F804C0ACEB06086C
:1029E000B44532D014DCBCF1030F3AD009DCBCF1A1
:1029F000000F2AD0BCF1010F1CD0BCF1020F31D165
:102A00001DE0BCF1110F17D0BCF1120F2AD119E053
:102A1000B8F5881F19D006DCB8F5803F15D0B8F599
:102A2000801F1FD111E0B8F5001F0ED0B8F5041FAC
:102A300018D10AE0CB6815E0CB681B1D12E0CB680B
:102A400008330FE0CB680C330CE08B682BB1012B03
:102A50004FF0080303D0456104E0042302E0056160
:102A600000E00023FF2A01D8064601E000F1040639
:102A70004FEA840501D9A5F12005D6F8008007FAB0
:102A800005FC28EA0C0803FA05F548EA0508C6F82B
:102A900000804D68ED0062D5374DAE6946F0010605
:102AA000AE61AD6924F0030605F001050095334DD4
:102AB00006EB050CDCF80850A607360F07FA06F8F7
:102AC00025EA0805DFF8B880404503D14FF000083B
:102AD00017E044E0DFF8AC80404502D14FF0010838
:102AE0000FE0DFF8A480404502D14FF0020808E073
:102AF000DFF89880404502D14FF0030801E04FF025
:102B0000040808FA06F848EA0508CCF808804D6879
:102B1000D9F80060ED034D4601D5164300E0964319
:102B20002E604D68DAF80060AD03554601D51643B6
:102B300000E096432E604D68DBF80060ED025D46D4
:102B400001D5164300E096432E604D68DEF8006024
:102B5000AD02754601D5164300E096432E60641C15
:102B60000D682A46E5407FF431AFBDE8F88F0000DC
:102B7000000401400000111000100240000001405C
:102B800000080140000C0140001001400014014009
:102B90008068084000D001207047C2680A4201D016
:102BA00041617047016170470AB1016170470904D2
:102BB000FBE700000148806870470000C800002063
:102BC00070B504001BD094F83D00002520B984F8AE
:102BD0003C50204600F056FA242084F83D0020683E
:102BE000016821F00101016000F0DCFC4D4A6168E0
:102BF000914201D84C4900E04C49884201D2012061
:102C000070BD4B492368B0FBF1F15E6826F03F06CA
:102C10000E435E606368934206D94FF4967359433E
:102C20004FF47A73B1FBF3F12368491C1E6A26F056
:102C30003F06314319626168914210D84900401E35
:102C4000B0FBF1F2521CC2F30B02042A01D20420A1
:102C500022E0B0FBF1F0401CC0F30B001CE0A368C5
:102C6000F3B301EBC10202EB0116421EB2FBF6F216
:102C7000521C42F48042120549D093B301EBC102C9
:102C800002EB0111401EB0FBF1F0401CC0F30B0041
:102C900040F4804040F400402168CA694CF6FF735C
:102CA0009A431043C861D4E90701084321680A68C0
:102CB00022F0C00210430860D4E9030101432068F8
:102CC000826848F2FF339A4311438160D4E90501D9
:102CD00008432168CA6822F0FF021043C86001E07F
:102CE0000EE016E02068016841F0010101602564F2
:102CF000202084F83D00256384F83E50002070BDFC
:102D000001EB4106421EB2FBF6F2521CB3E7012072
:102D1000C2E701EB4101401EB0FBF1F0401CC0F3E3
:102D20000B00B7E7A086010080841E0000093D006B
:102D300040420F002DE9FF4F83B09A46DDE911971D
:102D400093460446DDF84080FFF734FF054694F8CB
:102D50003D0020286FD1192301227B492046009590
:102D600001F000FB0028F5D194F83C00012862D066
:102D7000012084F83C0020680168C90703D101687C
:102D800041F0010101602168086820F400600860DA
:102D9000222084F83D00402084F83E00002626646E
:102DA000C4F82480A4F82A90608D20856748E062EA
:102DB000CDE9007553465A462046049901F0EFF9D3
:102DC00000287DD1208DDFF8888168B1012814D0DA
:102DD000022820D02068016841F4806101602068E9
:102DE000416980690090A0E0206841698169009193
:102DF000016841F40071016097E02068016821F4E6
:102E00008061016072B62068416981690091016842
:102E100041F400710CE02168086840F4006008602B
:102E200072B62068416981690091016821F480616E
:102E3000016062B679E084E003284FD801280BD006
:102E400002283B464FF000024146204600950ED036
:102E500001F088FAA0BB0FE02A463946204601F06F
:102E600000FB68BB20680069616A087054E001F0EB
:102E700079FA28BB72B61AE02068016821F48061F3
:102E8000016072B620680069616A0870606A401C5F
:102E90006062208D401E2085608D401E60853B460F
:102EA000002241462046009501F05CFA40B92068B6
:102EB000016841F40071016020680069616A00E006
:102EC00012E00870606A401C6062218D491E2185F5
:102ED000618D491E618562B621681BE02A4639462C
:102EE000204601F0BEFA18B1012007B0BDE8F08F0E
:102EF00020680069616A0870606A401C6062218D08
:102F0000491E2185618D491E618521684A69D24328
:102F100052070AD409690170606A401C6062208D02
:102F2000401E2085608D401E6085208D002883D145
:102F3000202084F83D0084F83E6084F83C60002046
:102F4000D3E70220D1E70000020010000000FFFFDD
:102F5000040001002DE9FF4F83B09A46DDE9119787
:102F600093460446DDF84080FFF724FE054694F8BA
:102F70003D0020287FD11923012240492046009599
:102F800001F0F0F9002876D194F83C00012872D0C5
:102F9000012084F83C0020680168C90703D101685A
:102FA00041F0010101602068016821F400610160C5
:102FB000212084F83D00402084F83E00002626644D
:102FC000C4F82480A4F82A90608D20852C48E06203
:102FD000CDE9007553465A462046049901F052F94E
:102FE00070B930E02A463946204601F06DFA58B1F2
:102FF000206C042804D12068016841F4007101604C
:10300000012007B0BDE8F08F606A21680078086190
:10301000606A401C6062218D491E89B22185628DE3
:10302000521E628522685369DB435B070BD469B18A
:1030300000781061606A401C6062208D401E20850F
:10304000608D401E6085208D0028CBD12A463946F0
:10305000204601F061F90028CAD154F83D0B0168FF
:1030600041F400710160202004F81E09E6776677BC
:103070000020C6E7FFE70220C3E7000002001000BF
:103080000000FFFF00B585B0002100910191029181
:10309000039100680F4988421AD10F48816941F0B5
:1030A00008018161816901F008010491C16941F45D
:1030B0000011C161C069694600F400100490C0208D
:1030C000009012200190032003900448FFF770FC49
:1030D00005B000BD0054004000100240000C01404B
:1030E00070B5040011D021684CF6CC40086021680E
:1030F00045F255500860D4E9000141602168A0689C
:103100008860FFF757FD054609E0012070BD00BF4C
:10311000FFF750FD401B302801D9032070BD206807
:10312000C0680028F4D121684AF6AA20086000206F
:1031300070BD00684AF6AA210160002070470000B7
:10314000024881680278114481607047C8000020FD
:10315000074810B5016841F010010160032000F03C
:1031600095F8002000F006F800F03EF8002010BDB1
:103170000020024000B5014687B00022192000F06F
:1031800065F8192000F054F81348816941F4006192
:103190008161806905A900F400600690684600F02E
:1031A000E1F900F00FFA0D490D4AB0FBF1F10D48BD
:1031B000491E0260416040F2E7320021C0E903216C
:1031C000816000F086FC10B1012007B000BD054809
:1031D00000F0B8FCF9E700000010024040420F0088
:1031E000002C0140300300200F4808B5816941F0F0
:1031F00001018161816901F001010091C16941F022
:103200008051C161C069002200F0805000900F2100
:10321000901E00F01BF80548416821F0E06141F084
:103220000071416008BD0000001002400000014034
:10323000002809DB00F01F020121914040098000B5
:1032400000F1E020C0F8001170470000F0B40E4B10
:103250001B680C46C3F30223C3F10705042D00D9F4
:103260000425191D072901D2002300E0DB1E0126D9
:1032700006FA05F1491E214099409E40761E1640EF
:103280003143F0BC02F094B80CED00E0064900F0C8
:10329000070208684FF6FF03184040EA0220034A7D
:1032A00010430860704700000CED00E00000FA05D4
:1032B0002DE9F843044600785B4DC0074FF0010943
:1032C00051D0E8690026C00008D4E86940F0805079
:1032D000E861E869012600F08050009053480168D9
:1032E000C90512D40168804641F480710160FFF77E
:1032F00061FC074605E000BFFFF75CFCC01B6428CB
:1033000077D8D8F80000C005F6D5286A10F44070C8
:103310001ED0A18801F44071814219D0286A444925
:1033200020F44070C1F8009000220A602862C007B3
:103330000ED0FFF73FFC074641F2883805E000BF9A
:10334000FFF738FCC11B414553D8286A8007F7D5E1
:10335000286A616820F44070084328621EB1E86959
:1033600020F08050E8612078800705D56868A16862
:1033700020F44040084368602078400705D5E86A9B
:10338000E16820F400300843E8622078000705D5A2
:10339000E86A216920F480200843E862E86A800333
:1033A00002D4E86A400333D52868C00028D42868CE
:1033B000400105D5E86AA16900F0F000884225D1F6
:1033C000E86AA16920F0F0000843E862E86A6169F0
:1033D00020F470400843E8621649C1F87090FFF786
:1033E000E9FB064608E004E0FFF7E4FB801B6428E5
:1033F00002D90320BDE8F88328688000F4D507E0EF
:10340000E86A616900F47040884201D00120F1E768
:103410002078C00605D56868E16920F4800008437B
:1034200068600020E6E700000010024000700040E5
:1034300040044242000042422DE9F0470F46050099
:1034400061D0434E306800F00700B84209D23068BE
:1034500020F0070038433060306800F00700B842C1
:1034600051D128683B4C810712D5400703D56068CD
:1034700040F4E06060602878000703D5606840F49D
:10348000605060606068A96820F0F00008436060E8
:103490002878C00728D06868012810D02168022841
:1034A00010D0890700292EDA616821F00301014359
:1034B0006160FFF77FFB804641F288390DE02168AB
:1034C0008903EFE78901EDE7FFF774FBA0EB080143
:1034D000494502D90320BDE8F0876068696800F0BB
:1034E0000C00B0EB810FEFD1306800F00700B8425C
:1034F0000BD9306820F0070038433060306800F0A6
:103500000700B84201D00120E5E72878400705D53B
:103510006068E96820F4E06008436060287800078C
:1035200006D56068296920F4605040EAC1006060F7
:1035300000F058F86168084AC1F30311515CC840B3
:103540000649086006480068FFF714FE0020C2E73D
:10355000002002400010024060610008D4000020FA
:10356000CC0000200F2202600C4A536803F00303D2
:103570004360536803F0F0038360536803F4E0632F
:10358000C36052684FF4E06303EAD2020261044868
:10359000006800F00700086070470000001002405B
:1035A000002002400448054900684968044AC1F304
:1035B0000221515CC8407047D40000200010024036
:1035C000706100080448054900684968044AC1F36D
:1035D000C221515CC8407047D40000200010024056
:1035E00070610008F0B524A289B00FCA04AC84E869
:1035F0000F0025A10FC98DE80F002748416801F091
:103600000C02042A04D0082A04D0244809B0F0BDD2
:103610002348FBE704AAC1F38343C903D45C28D53C
:10362000C16AC26A01F00F011DF80110D20316D55C
:10363000C26AC06AC2F30312521CA2FB0123C0F388
:103640000320801CA0FB0415154F0026A1FB070CCE
:1036500005FB07C501FB0651FCF7E2FD03E010483E
:103660006043B0FBF1F09DF81D10A142CED140089F
:10367000CCE70C486043C9E70000040506070809C9
:1036800000000000000D0000010203040506070809
:10369000090A0B0C0D0E0F100010024000127A00E8
:1036A00040787D0100093D002DE9F84F040070D0FD
:1036B0002078F14DC00749D06868C0F38100012827
:1036C00007D06868C0F38100022809D16868C00388
:1036D00006D52868800339D5A0680028E7D035E0F2
:1036E000A068B0F5803F0BD010B1B0F5A02F11D07D
:1036F000286820F480302860286820F4802002E0C8
:10370000286840F480302860A06890B1FFF752FA32
:1037100006460AE0286840F480202860F0E700BFF1
:10372000FFF748FA801B642876D828688003F7D50D
:103730000CE0FFF73FFA064605E000BFFFF73AFA54
:10374000801B6428F0D828688003F7D42078CB4EFB
:1037500080074FF001094FF000073AD5686810F074
:103760000C0F07D06868C0F38100022809D168688F
:10377000C00306D42868800715D56069012808D1E0
:1037800011E06069B8B1C6F80090FFF713FA8046FF
:1037900006E042E1FFF70EFAA0EB08000228C3D8CA
:1037A00028688007F6D52868A16920F0F80040EA6B
:1037B000C10028600DE03760FFF7FCF9804605E0A6
:1037C000FFF7F8F9A0EB08000228ADD828688007B9
:1037D000F6D4207800072ED5A948E169E9B1C0F8F0
:1037E0000090FFF7E7F9804606E000BFFFF7E2F937
:1037F000A0EB0800022897D8686A8007F6D5A14890
:103800004FF4FA510068B0FBF1F0009000BF00984F
:10381000411E0091FAD20EE0B0E00760FFF7CAF94E
:10382000804605E0FFF7C6F9A0EB0800022889D81A
:10383000686A8007F6D42078400763D5E8694FF0BE
:103840000008C00009D4E86940F08050E861E869E8
:103850004FF0010800F0805000908B480168C905C6
:1038600012D40168834641F480710160FFF7A2F928
:10387000824605E0FFF79EF9A0EB0A0064287DD898
:10388000DBF80000C005F5D5206901280AD008B191
:10389000052813D0286A20F001002862286A20F049
:1038A000040002E0286A40F001002862206941F229
:1038B000883B98B1FFF77EF982460BE0286A40F01A
:1038C00004002862EEE700BFFFF774F9A0EB0A01DD
:1038D000594553D8286A8007F6D50CE0FFF76AF9F6
:1038E000824605E0FFF766F9A0EB0A01594545D885
:1038F000286A8007F6D4B8F1000F03D0E86920F0F9
:103900008050E861E06AD0B36968C90307D5696887
:10391000C1F38101022902D1E96AC9037DD40228D9
:1039200008D0E86A20F48030E862B766FFF742F911
:1039300080463BE02868C00005D5E86A616B00F06E
:10394000F000884269D1B766FFF734F9804605E098
:10395000FFF730F9A0EB0800642874D8286800014C
:10396000F6D4E86A616B20F0F0000843E862E86A88
:10397000216B20F470600843E86201E063E018E026
:10398000C6F86890FFF716F9804605E0FFF712F9D0
:10399000A0EB0800642856D828680001F6D508E096
:1039A000FFF708F9A0EB080064284CD8286800014C
:1039B000F6D4206A90B36968C1F38101022949D025
:1039C0000228376603D0FFF7F5F804463EE0FFF71C
:1039D000F1F8074605E000BFFFF7ECF8C01B02282E
:1039E00031D828688001F7D4606AB0F5803F09D1EA
:1039F000E86A61680843E862E86AE16820F00F005D
:103A00000843E862D4E909010843696821F47411A4
:103A100008436860C6F8609001E028E029E0FFF7FD
:103A2000C9F8044605E000BFFFF7C4F8001B0228F0
:103A300009D828688001F7D51BE000BFFFF7BAF866
:103A4000001B022802D90320BDE8F88F28688001F6
:103A5000F4D40EE00128F7D06868626A00F480317F
:103A6000914204D1A16A00F47010884201D0012073
:103A7000EAE70020E8E700000010024000004242B0
:103A800080044242D400002000700040704770471C
:103A900070B590F83C20012A19D0012400F83C4F61
:103AA0000222427050F83C3C5A689D6822F0700631
:103AB0000A684968324325F0800529435A6050F866
:103AC0003C2C9160447000210170084670BD0220BA
:103AD00070BD10B5040003D094F83D0010B107E0AC
:103AE000012010BD002084F83C00204600F00CF8B6
:103AF000022084F83D00211D206801F033FA0120E6
:103B000084F83D00002010BD08B500680B498842CC
:103B100012D10B48C16941F00401C161C0690022A2
:103B200000F00400009005211E20FFF78FFBBDE888
:103B300008401E20FFF77CBB08BD000000080040C5
:103B4000001002400168CA6842F00102CA600068C1
:103B5000816801F00701062903D0016841F00101E5
:103B600001600020704770B5044690F83C000128C1
:103B700017D0012584F83C50022084F83D002068CD
:103B8000826822F0770222F47F428260086850281F
:103B900030D00DDC20284DD005DC98B310283BD167
:103BA00048E0022070BD302844D0402834D139E0AC
:103BB000602828D0702806D0B0F5805F2CD0B0F5F2
:103BC000005F29D10AE0CB68D1E90121206801F02A
:103BD00007FA2068816841F0770109E0CB68D1E9F4
:103BE0000121206801F0FCF92068816841F48041DE
:103BF000816011E0CA684968206801F003FA502129
:103C0000206807E016E0CA684968206801F00BFAEE
:103C10006021206801F0EEF984F83D50002084F81E
:103C20003C0070BDCA684968206801F0EBF940218A
:103C30002068EFE7226801461046EBE7704770B551
:103C40000446006801694FF00005C943890715D48F
:103C5000C168C943890711D4E91E01610120207799
:103C6000206880698007204602D0FFF7E7FF04E064
:103C700000F098F8204600F096F825772068016952
:103C8000C943490717D4C168C943490713D46FF022
:103C900004010161022020772068806910F4407FD0
:103CA000204602D0FFF7CAFF04E000F07BF8204670
:103CB00000F079F8257720680169C943090716D40F
:103CC000C168C943090712D46FF0080101610420DB
:103CD00020772068C0698007204602D0FFF7AEFF3A
:103CE00004E000F05FF8204600F05DF825772068DA
:103CF0000169C943C90617D4C168C943C90613D4A9
:103D00006FF010010161082020772068C06910F46D
:103D1000407F204602D0FFF791FF04E000F042F818
:103D2000204600F040F8257720680169C943C9079B
:103D300008D1C168C943C90704D1891E0161204661
:103D400000F032F820680169C943090609D4C16846
:103D5000C943090605D46FF0800101612046FFF7D1
:103D600095FE20680169C943490609D4C168C94361
:103D7000490605D46FF040010161204600F03AF891
:103D800020680169C94389060BD4C168C943890603
:103D900007D46FF0200101612046BDE87040FFF7B5
:103DA00076BE70BD7047704710B5044600680F4975
:103DB000884201D1FFF7C4F90D492068884213D128
:103DC000FDF73EFDFDF7D0FCFDF762FCFDF7F0FCD2
:103DD000FDF782FCFDF710FDFDF7A2FCFDF754FD99
:103DE000BDE81040FDF774BD10BD0000002C01407F
:103DF000000800407047704770B5026804461068BC
:103E0000D168536910F00F0F51D003F0010501F490
:103E1000907635435DD0C20705D0CA0503D5E26B65
:103E200042F00102E263420705D5DA0703D0E26BF4
:103E300042F00202E263820705D5DA0703D0E26BA3
:103E400042F00402E263020705D5DA0703D0E26B11
:103E500042F00802E263E26B002A34D0800604D507
:103E6000880602D5204601F059F920684069E16BC7
:103E7000C0F3801001F008010143204624D001F076
:103E80003FF92068416949061AD5416921F040018E
:103E90004161606BA0B11B494163606BFEF744FB5D
:103EA000002810D0606B416BBDE870400847830666
:103EB0000FD58B060DD52046BDE8704001F02EB918
:103EC0002046FFF798FF70BDFFF795FF0020E063E5
:103ED00070BD030606D50B0604D52046BDE870402C
:103EE00001F0C4B94006F3D54806F1D5D1682046A3
:103EF00021F04001D160202184F8391000F0D4F87D
:103F000070BD0000F150000870B5040004D094F8B2
:103F10003900002510B106E0012070BD84F838504A
:103F2000204600F023F8242084F839002068C16876
:103F300021F40051C160204601F03CF9206801697C
:103F400021F4904101612068416921F02A01416119
:103F50002068C16841F40051C160E563202084F805
:103F6000390084F83A00002070BD000030B585B0FB
:103F70000024009401940294039400681849884234
:103F80002CD11848816941F480418161816901F433
:103F900080410491816941F0040181618069124D81
:103FA00000F0040004904FF4007000900220019093
:103FB0000320039069462846FEF7FAFC2815CDE950
:103FC0000004694628460294FEF7F2FC002205210F
:103FD0002520FFF73BF92520FFF72AF905B030BD72
:103FE00000380140001002400008014070472DE9F0
:103FF000F843044690F839001F4616460D4620281F
:1040000050D1A5B19EB194F8380001284AD00120C2
:1040100084F838004FF00008C4F83C80212084F870
:104020003900FEF7C7FDA6848146E68426E001201C
:10403000BDE8F883E08C401EE084A0684B46B0F5F4
:10404000805F4FF000024FF080012046009703D0C0
:1040500001F03DF9E8B90DE001F039F9C8B9288857
:104060002168C0F308004860206908B16D1C05E0B4
:10407000AD1C03E0216815F8010B4860E08C0028B6
:10408000D8D14B46002240212046009701F01FF96D
:1040900008B10320CCE7202084F8390084F8388068
:1040A0000020C5E70220C3E77047FEE7234810B5AC
:1040B0000088FCF797FB224A224BFCF785FAFCF7B5
:1040C000FDFB214908602149FCF767F92049FCF70D
:1040D0000CF9FCF794FB81B21E481F4C427B406AEE
:1040E00062B11E490A881E494988A1F10A039A4211
:1040F0001CDAB0F5E17F19D201220CE04A1F904290
:10410000FAD3491D884216D9002208212046FEF71D
:104110004BFD012204E008212046FEF745FD002268
:104120002046BDE810401021FEF73EBD0A318A420C
:1041300001D9FA28E8D80022EDE700005800002055
:104140007B14AE47E17A843F9C0000200000484386
:1041500000007A433C010020001401400E000020C2
:104160001E000020FFF7A2FFC82001F0EFFAF9E7D8
:1041700001684A69D24352050FD46FF480624A61E4
:10418000002140F8301F202242738173026942F0FF
:1041900004020261017301207047002070472DE97D
:1041A000F84F0446006889460B9D016898461746FB
:1041B00041F4806101602068016841F48071016010
:1041C00000954FF0011A0022514620460A9B00F04C
:1041D000C9F8002853D1216809F0FE0008610AF1EE
:1041E000010B2B46594620460A9A00F0EFF8F0BB27
:1041F00020684169806900902A4620460A9900F0AB
:1042000063F940B1206C042839D12068016841F479
:104210000071016033E0FEB2B8F1010F09D02168EE
:10422000380A08612A4620460A9900F04DF900280C
:10423000E8D1206806612A4620460A9900F044F930
:104240000028DFD12068016841F480710160009589
:104250000022514620460A9B00F084F838B92168B4
:1042600009F0FF0040F0010008612B4600E006E085
:10427000594620460A9A00F0A9F8002800D00120EB
:10428000BDE8F88F2DE9F843044600680D46DDE9E6
:10429000089701689846164641F4807101604B46C4
:1042A00000224FF001112046009700F05BF8E0B9C2
:1042B000216805F0FE0008613B464A461549204644
:1042C00000F084F888B920684169806900903A4616
:1042D0004946204600F0F8F850B1206C042804D17B
:1042E0002068016841F4007101600120BDE8F88395
:1042F000F5B2B8F1010F09D02168300A08613A46D9
:104300004946204600F0E0F80028E6D12068056123
:104310000020EBE70200010070B516460D4604468A
:104320000DE02046FFF724FF08B1012070BD681C96
:1043300005D0FEF73FFC801BA84207D835B12068A6
:104340004069C0434007ECD4002070BD002044F811
:10435000300F20216173A073216941F02001216198
:104360002073E2E72DE9F0471E4690460D460446CD
:10437000C1F30747DDF8209008E0701C06D0FEF777
:1043800019FCA0EB0900B0420FD876B12068012FCC
:1043900018D0806925EA00000004000C14D0002128
:1043A0004145EAD00020BDE8F087002044F8300FF6
:1043B00020216173A073216941F0200121612073E4
:1043C0000120F0E74069E5E70121E9E72DE9F04741
:1043D0009A4691460E46044600254FF02008C1F348
:1043E000074725E020684069C043400514D4206891
:1043F000016841F40071016021686FF480604861D8
:10440000256384F83D8084F83E50206C40F0040021
:10441000206484F83C501FE0B9F1FF3F08D0FEF75C
:10442000C9FBA0EB0A0149450CD8B9F1000F09D02E
:104430002068012F13D0806926EA00000004000CD8
:104440000BD0CFE744F8305F84F80D80A573206966
:1044500040F02000206125730120BDE8F08740690D
:10446000EAE72DE9F041002590460E460446202754
:1044700017E04069C043C0060CD454F8301B6FF0FD
:104480001000486144F810596777A577206A2062C8
:10449000257717E0FEF78EFBA0EB0800B04208D8A6
:1044A0003EB120684169C9434906E2D40020BDE815
:1044B000F08144F8305F6773A573206940F02000F5
:1044C000206125730120F2E770B516460D460446BB
:1044D0000DE02046FFF74CFE08B1012070BD681CBE
:1044E00005D0FEF767FB801BA84207D835B12068CE
:1044F0004069C0430006ECD4002070BD002044F8A1
:10450000300F20216173A073216941F020012161E6
:104510002073E2E72A49002001228885C8850886A1
:10452000488648878887C8878886C886088708623B
:10453000486288628861CA72CA700A714A718A7157
:10454000CA710A720A754A751E49088048808880B7
:10455000C880088148818881C88108824882888211
:10456000C882088348838883C883088448848884F1
:10457000C884088548858885C885088648868886D1
:10458000C886088748878887C887A1F84000A1F8AF
:104590004200A1F84400A1F846000B4908700B49FD
:1045A00008700B4908700B4908700B4908700B49DB
:1045B00008700B49087011460A48FEF7F5BA00006A
:1045C0003C0100207C0100200600002007000020A4
:1045D0000800002009000020020000202400002024
:1045E00025000020001401403EB50021274800911D
:1045F0000191254A0291026092158260012505739E
:10460000017505244FF460220461C2614160FDF729
:104610000FFA08B1FDF726F80A20CDE90005694632
:1046200002941A48FDF782F908B1FDF71BF80B2038
:1046300000900220019069461448FDF777F908B10F
:10464000FDF710F80C2000900320019069460F48F8
:10465000FDF76CF908B1FDF705F80E200090042075
:10466000019069460948FDF761F908B1FCF7FAFFC6
:104670000F20CDE9000469460448FDF757F90028EA
:1046800001D0FCF7EFFF3EBD00240140D001002027
:10469000104810B50E4901600921416000214FF416
:1046A000C0228160C0E903124FF4E002426101764A
:1046B000417681760122C27601774177FDF783FD4D
:1046C000002803D0BDE81040FCF7CCBF10BD0000AF
:1046D0000064004078020020094808B5416941F0B3
:1046E000010141614069002200F0010000900521B4
:1046F0000B20FEF7ABFDBDE808400B20FEF798BD90
:104700000010024010B5A4B0142227496846FBF7F8
:10471000C8FD0021684601F025F8244C22491422E6
:104720006060143105A8FBF7BCFD002105A801F06D
:1047300019F81D49A060142228310AA8FBF7B1FD21
:1047400000210AA801F00EF81749E06014223C315C
:104750000FA8FBF7A6FD00210FA801F003F81249EE
:1047600020611422503114A8FBF79BFD002114A8EE
:1047700000F0F8FF0C4960611422643119A8FBF7BE
:1047800090FD002119A800F0EDFF0749A061142257
:1047900078311EA8FBF785FD00211EA800F0E2FF7E
:1047A000E06124B010BD0000D4600008A400002027
:1047B000F0B585B000243948009401940294039424
:1047C000816941F040018161816901F040010491FA
:1047D000816941F010018161816901F0100104914A
:1047E000816941F004018161816901F00401049152
:1047F000816941F008018161816901F0080104913A
:10480000816941F0200181618069254E00F020001E
:104810004FF400550490002229463046FEF7C4F9B3
:10482000204F00227F213846FEF7BEF943F6FF7085
:10483000CDE9000469461C480294FEF7B9F8CF2080
:10484000CDE90004694619480294FEF7B1F840F238
:104850000320CDE90004694630460294FEF7A8F82B
:1048600000950125CDE9015403246946304603949F
:10487000FEF79EF87720022603948DE861006946D2
:104880003846FEF795F808208DE8610069463846FD
:104890000396FEF78DF805B0F0BD00000010024051
:1048A000000C0140001401400018014000080140C4
:1048B0000D4810B50B4901600C49416000214FF4CF
:1048C00080428160C0E9031241618161C16101627E
:1048D000FEF776F9002803D0BDE81040FCF7C2BE11
:1048E00010BD00000054004070030020A0860100AD
:1048F000094810B507490160042141604FF4FA717D
:104900008160FEF7EDFB002803D0BDE81040FCF706
:10491000A9BE10BD00300040A002002010B586B036
:1049200000241748009401940294039404941349BA
:10493000059401604721C0E901143121C0E9031445
:1049400080218161FFF7C5F808B1FCF78BFE4FF4B9
:104950008050009069460A48FFF705F908B1FCF756
:1049600081FE049404A906480594FFF791F80028F5
:1049700001D0FCF777FE06B010BD00000008004033
:10498000B00200200C4810B50A4901604FF4E13133
:104990004160002181600C22C160C0E90412816184
:1049A000C161FFF7B1FA002803D0BDE81040FCF761
:1049B00059BE10BD00380140F0020020FEE77047EC
:1049C0002DE9F05F7A4C4FF0050A0025E168DFF829
:1049D000E481B1FBFAF0373086B26680B6F5207F0D
:1049E0000FD93046FBF7FEFE734A744BFBF7ECFD24
:1049F0000022734BFBF7E2FDFBF734FFC8F8180009
:104A000001E0C8F818500127B6F5967F01D227704B
:104A100000E0257040F6EA30864201D9677000E078
:104A20006570D8F818006749A0F13302F92A01D35C
:104A30001E2801D20D7000E00F702069FBF7D2FE36
:104A40000022614BFBF732FE4FF066325F4BFBF703
:104A5000BBFD6FF00B02FBF798FE5D4A5D4BFBF769
:104A60000CFDFBF72BFF5C496062884202DDC8F851
:104A70001C5062E0FBF70FFF8B460646574A584B27
:104A8000FBF79FFDFBF71AFF8146A06230465946AF
:104A90000022544BFBF798FD0022534BFBF794FD8B
:104AA000FBF70CFF4946E062FBF7A9FCFBF7A7FE0A
:104AB0004E4E2062B0F5C07F08DCFBF782FE4C4A08
:104AC0004C4BFBF781FD32464B4B0CE0A0F28111C1
:104AD000B1F5997F0CD2FBF774FE484A484BFBF7BF
:104AE00073FD3246474BFBF7C8FCFBF7BBFE22E0E9
:104AF000A0F2B321B1F5227F09D8FBF762FE3C4A50
:104B0000414B5242FBF760FD0022404BEBE740F285
:104B10003C51884211DBFBF754FE3D4A3D4BFBF70D
:104B200053FD4FF033323C4BFBF7A7FCFBF77BFE0A
:104B3000002800DA0020C8F81C006289D8F81C1090
:104B40003648914201D8057000E00770606955460B
:104B5000B0FBF5F080B2A080FBF744FE304E314F41
:104B600032463B46FBF730FDFBF77CFEC8F82000E1
:104B7000A069B0FBF5F080B2E080FBF733FE32466F
:104B80003B46FBF721FDFBF76DFEC8F82800E06906
:104B9000B0FBF5F080B22081FBF724FE32463B46A5
:104BA000FBF712FDFBF75EFEC8F82400BDE8F09F9E
:104BB000240000203C010020D0B359F5B9DADA3FD7
:104BC00000406F40040000200000144066660A4068
:104BD0007B14AE47E17AA43F666616401F85EB5111
:104BE000B81E044000005940000024409A99999949
:104BF000A8C64B378941C0BF99996240A4703D0A4D
:104C0000D7A3B0BF99395F4076BE9FBF00605940BF
:104C100039B4C876BE9F8ABF335353400500002085
:104C2000CFF753E3A59BC43F70B57C4D01212846C7
:104C3000FDF7AEFF7A4C022160722846FDF7A8FF0F
:104C4000A07204212846FDF7A3FFA073082128467F
:104C5000FDF79EFF607310212846FDF799FF207332
:104C600020212846FDF794FFE07340212846FDF7F8
:104C70008FFF607480212846FDF78AFF2074A915F4
:104C80002846FDF785FF207069152846FDF780FF4F
:104C9000607029152846FDF77BFFA070E9142846AF
:104CA000FDF776FFE070A9142846FDF771FF20712B
:104CB00069142846FDF76CFF607122780123594979
:104CC000002572B1667866B1A67856B1E67846B12D
:104CD000267936B128B1CE781EB90E790EB94E7943
:104CE00016B10B704B7004E0E67B002E73D00D7094
:104CF0004D708D704C4B8D781B7865F35F034D784C
:104D000003EB8503494D2D7803EBC503484D2D7802
:104D100003EB0513657CEDB35FF0000503EB451372
:104D2000257CC5B35FF0000503EB8513E57B9DB3E0
:104D30005FF0000503EBC5138B7172B3002263783B
:104D400063B3002302EB4302A37843B35FF0000395
:104D500002EB83024B7902EB43120B7902EB8312D5
:104D6000CB7802EBC312CA71E2787AB300222379BE
:104D700073B3002302EB430258B3002002EB800020
:104D8000A27A3AB35FF0000200EBC2100872607AB8
:104D900078B305E023E024E025E026E027E029E0E1
:104DA0000020A27B80007AB35FF0000200EBC2001B
:104DB000627B52B35FF0000200EB4210227B5AB3D9
:104DC0005FF0000200EB8210487270BD14E002E058
:104DD00014E015E016E00B704D708B708AE701252A
:104DE0009CE70125A0E70125A4E70122A7E701230D
:104DF000A8E70BE00123ABE70122B8E70123B9E7FD
:104E00000120BBE70122BFE702E003E00120C8E781
:104E10000122CBE70122CFE70122D3E700180140AE
:104E20003C01002000000020C400002024000020DD
:104E300025000020044C00252078012800D1257091
:104E40000A2000F083FCF7E7A400002010B55020F2
:104E500080F31188BFF34F8FBFF36F8F01F074F8A9
:104E600018B104494FF080500860002080F3118889
:104E700010BD000004ED00E030B59BB0382168465D
:104E8000FBF728FA14210EA8FBF724FA202113A817
:104E9000FBF720FA0920009001254FF4803004210F
:104EA0000795CDE902010224CDE90840019005955E
:104EB0004FF4E010CDE90A044FF4C0600C9040209C
:104EC0000D906846FEF7F0FB0F20CDE90E040020A0
:104ED0006102CDE91001129002210EA8FEF7ACFA92
:104EE000A0031590139413A8FEF7E2F90148056793
:104EF0001BB030BD000042421048016841F0010182
:104F0000016041680E4A1140416001680D4A11403C
:104F10000160016821F480210160416821F4FE01F3
:104F20004160016821F0A05101604FF47F01816070
:104F30000021C1620449C0030860704700100240AC
:104F40000000FFF0FFFFF6FE08ED00E00148FEF76D
:104F500076BE0000300300200148FEF770BE00005E
:104F6000B0020020F0B50268194B1A4C1A4D1B4EC6
:104F70004FF08047984207D0B84205D0A04203D0F6
:104F8000A84201D0B04204D122F0700C4A6842EA33
:104F90000C02984207D0B84205D0A04203D0A842E4
:104FA00001D0B04203D122F44074CA6822434C6954
:104FB00022F08002224302608A68C2620A6882622A
:104FC000984201D10969016301214161F0BD0000EE
:104FD000002C01400004004000080040000C00408C
:104FE00010B5846842EA032224F47F440A43224332
:104FF000826010BD826822F070020A4342F007010D
:105000008160704710B5036A046A24F001040462E9
:10501000846924F0F00444EA021423F00A020A43EB
:105020008461026210BD10B5036A23F010030362AD
:105030008369046A23F4704343EA023224F0A00334
:1050400043EA01118261016210BD00002DE9F041C7
:10505000244C0127244D206A244E4FF00008F528E7
:1050600002D26F70012202E085F801800022402107
:105070003046FDF799FD206AF63809281DD82F70B3
:105080000122202135463046FDF78EFDA06AF52825
:1050900020D3FF2823D9002202212846FDF784FDD2
:1050A000012204E002212846FDF77EFD0022284669
:1050B000BDE8F0410421FDF777BD85F800800022AE
:1050C000202135463046FDF76FFD206AA26A411F58
:1050D0008A4201D20122E5E7411D8842DBD8002245
:1050E000E0E700003C0100201E0000200014014009
:1050F00010B5406A0021C185C184FEF77CFE10BD59
:105100000168CA6822F49072CA6001684A6922F094
:1051100001024A61202180F83A10704710B590F8DA
:105120003A10222901D0022010BD8168B1F5805FBC
:1051300011D00169002901681FD0496801F07F037F
:10514000816A4A1C82620B70C18D491E0904090CD8
:10515000C18518D02BE00269816A002A0268526872
:1051600005D0D2B20A80816A491C8162ECE7C2F3A1
:1051700008020A80816A891CF7E74A68816A4B1C29
:1051800083620A70E0E70168CA6822F02002CA6000
:105190000168CA6822F48072CA6001684A6922F014
:1051A00001024A61202180F83A10FEF71FFF00201B
:1051B00010BD00002DE9F041044600680169E26875
:1051C00021F44051114301612169A06808436169DC
:1051D00008432168CA6841F20C639A430243CA60DB
:1051E00020684169A26921F44071114341611E495F
:1051F000206864253226884202D1FEF7E3F901E0F7
:10520000FEF7D0F900EBC00101EB001160686FF010
:1052100018078000B1FBF0F2B2FBF5F2B1FBF0F33E
:105220007A4303EB8202B1FBF0F306EB0212B2FB0E
:10523000F5F2B3FBF5F302F0F00202EB0312B1FB5F
:10524000F0F3B1FBF0F0B0FBF5F0784303EB800036
:1052500006EB0010B0FBF5F0216800F00F001044E1
:105260008860BDE8F08100000038014090F83910F6
:10527000212901D0022070478168B1F5805F016A61
:105280000BD04A1C0262026809785160C18C491E29
:105290000904090CC1840ED017E009880268C1F323
:1052A0000801516001690029016A02D0491C0162AC
:1052B000ECE7891CFBE70168CA6822F08002CA603B
:1052C0000068C16841F04001C160002070472DE9CD
:1052D000F041984617460E460446069D1DE0681CA0
:1052E0001BD02DB1FDF766FCA0EB0800A84214D935
:1052F0002068C16821F4D071C1602068416921F043
:1053000001014161202084F8390084F83A0000202E
:1053100084F838000320BDE8F0812068006836EA90
:10532000000004D00020B842D9D00020F3E70120CB
:10533000F9E700000148FEF75FBD0000F002002021
:10534000FEE700000F4D104E104F00242878012872
:105350000CD1B07A012809D0641CA4B2642C0BD9FA
:10536000002201213846FDF71FFC05E0012211460D
:105370003846FDF719FC0024FFF768FE322000F0E4
:10538000E5F9E3E71E0000203C0100200014014085
:105390000FB4054B10B503A9044A029800F028F891
:1053A00010BC5DF814FB0000B15600083801002065
:1053B0000907090E002804DB00F1E02080F8001442
:1053C000704700F00F0000F1E02080F8141D7047D6
:1053D00002E008C8121F08C1002AFAD170477047BE
:1053E000002001E001C1121F002AFBD1704700001C
:1053F0002DE9FF4F8DB09B460F460446002606E080
:1054000025280BD05A460F999047641C761C2078AB
:105410000028F5D111B03046BDE8F08F0025A84630
:105420000122984900E0054314F8013F203B02FAAD
:1054300003F00842F7D120782E2817D114F8010F75
:1054400045F004052A280ED06FF02F022078A0F135
:10545000300109290AD808EB880102EB410100EB71
:105460000108641CF2E757F8048B641C20786C2850
:105470000DD004DC4C2812D06A2811D104E0742825
:105480000DD07A280CD10AE045F4001507E06178C8
:1054900045F48015814202D1641C05F58015641C19
:1054A0002278692A45D008DC002AB3D0582A69D06E
:1054B000632A10D0642A08D13BE0702A67D0732A8F
:1054C00013D0752A5CD0782A5CD010465A460F99C2
:1054D0009047761CD3E017F8040B8DF800000020ED
:1054E0008DF80100E946012003E057F8049B4FF0D6
:1054F000FF3069074FF0000501D40AE06D1C4545F7
:105500000DDA8542FADB19F805100029F6D106E01C
:105510006D1C8542FCDB19F805100029F8D12E44DA
:1055200004E019F8010B5A460F9990476D1EF8D206
:10553000A5E00A200021CDE90801C5F302500228A8
:105540000DD001CFC117031E71F100030DDA4FF02A
:10555000000CD0EB0C006CEB01012D2308E0FF1DCB
:1055600027F00707F7E80201EDE72B0504D52B2309
:105570008DF8283001233BE0EB0739D02023F7E7F3
:105580000A2000E010200021CDE9080107E01020EA
:10559000002145F00405CDE908014FF00808C5F3E6
:1055A000025002280FD001CF00214FF0000A2B0734
:1055B0001FD5702A0DD0DDE908C38CF0100C5CEA11
:1055C000030C0CD015E0FF1D27F00707F7E80201D8
:1055D000EBE740228DF828204FF0010A0BE050EA5B
:1055E000010306D030238DF828308DF829200223BE
:1055F0009A46582A04D024A20DF120090B9209E002
:1056000026A2F9E7DDE90823FAF70AFE0B9B9B5C6B
:1056100009F8013D50EA0102F4D1ADEB0900203058
:105620000890680701D44FF001080899884502DD09
:10563000A8EB010000E000208046002506E00AA853
:105640005A46405D0F9990476D1C761C5545F6DB18
:1056500004E030205A460F999047761CB8F10001BB
:10566000A8F10108F5DC05E019F8010B5A460F997D
:105670009047761C0899481E08900029F4DC641CA9
:10568000C5E60000092801003031323334353637A1
:10569000383961626364656600000000303132337E
:1056A000343536373839414243444546000000001E
:1056B00013B54FF6FF73012269460248FEF797FCC7
:1056C00000981CBDF0020020FDF742FDFFF7D4FB5F
:1056D000FFF76EF8FFF700F8FEF7DAFFFEF784FF3A
:1056E000FFF71CF9FFF74EF9FFF702F9FFF7E0F8B3
:1056F0000BA0FFF74DFE0E48FBF7F4FCFEF70AFF88
:10570000FBF726FF05220B490B48FCF767FA0B480D
:10571000FEF718FAFEF7F6FF00F01FF8FEE70000AC
:1057200048656C6C6F20776F726C64210D0A000005
:1057300078020020C4010020D0010020B002002027
:1057400001460020842900D0C81C704710B500B95C
:10575000012000F0E9FA002010BD10B500F00AFBAE
:10576000002010BD3EB504460D46B0F90800FFF715
:10577000E7FF02A9CDE90001208A2B4682B2D4E9D5
:10578000001000F0B5FB012801D000203EBD0298BA
:105790003EBD00002DE9F041184C0F4605466669F4
:1057A0002068001D00F006FA38B9206890F82C1027
:1057B00001208840A1698143A161681C07D137B1EC
:1057C0002168BDE8F0410E48091D00F02CBA2068A0
:1057D0003544B5424560216805D2A068BDE8F04176
:1057E000091D00F008BA6068091D00F004FA206B7A
:1057F000854200D22563BDE8F0810000D80000207A
:10580000A00400202DE9F041054600F019FA2E4CC5
:105810002069401C206120682C4F10B1E06940B322
:105820002DE025602069012829D1002606EB86009D
:1058300007EB800000F0D1F9761C072EF6D3234841
:105840008C3000F0CAF92148A03000F0C6F91F489A
:10585000B43000F0C2F91D48C83000F0BEF91B4852
:10586000DC3000F0BAF919488C3060601430A06068
:1058700005E02068E96AC06A884200D82560E06ACD
:10588000401CE062E96A0120A26988401043A061DF
:1058900001EB810007EB8000291D00F0C4F900F046
:1058A000EFF9E06900280CD02068E96AC06A8842F4
:1058B00007D207494FF080500860BFF34F8FBFF306
:1058C0006F8FBDE8F0810000D8000020C4030020E5
:1058D00004ED00E010B50446006B00F0E5F9204649
:1058E000BDE8104000F0E0B910484FF40051420705
:1058F00006D0C01D0D4920F00700411AC1F5005126
:105900000B4A00230144C2E900030839103A21F090
:10591000070111604B600B600B1AC0E90013936024
:105920004FF000405360D06070470000B404002086
:1059300024010020144E154CA6F1C8074FF08058E2
:10594000DFF84C9012E000BF00F07AF9F068C5680B
:10595000281D00F02FF92069401E2061E068401EDC
:10596000E06000F08DF92846FFF7B4FFE0680028FA
:10597000EAD138680128F9D9C9F80080BFF34F8F00
:10598000BFF36F8FF2E700008C040020D8000020E6
:1059900004ED00E02DE9F0479A46DDE909848146EF
:1059A0006FF00303206B03EB82021044089D20F08C
:1059B0000706700707D0502080F31188BFF34F8F80
:1059C000BFF36F8FFEE723180A5C83F834200A5C6C
:1059D00012B1401C1028F6D3002784F84370072D1D
:1059E00000D30625E562C4E91157201D00F000F937
:1059F00004F1180000F0FCF82461C5F107006462AE
:105A0000A061E76484F8507052464946304600F081
:105A1000BFF82060B8F1000F01D0C8F80040BDE821
:105A2000F087000030B5114900E011460A68824253
:105A3000FBD34B685C18844203D14068184448602B
:105A4000084643681C18944209D1084C103C24684D
:105A5000A24209D052681A4442600A681268026081
:105A6000814200D0086030BD0460F9E724010020C5
:105A700006484168096829B14168C968C968496828
:105A8000016370474FF0FF31FAE70000D8000020B3
:105A900008484068401C4FF0500080F3118804D043
:105AA000BFF34F8FBFF36F8FFEE7BFF34F8FBFF38F
:105AB0006F8FFEE72C0100202DE9F04105460027FD
:105AC00000F08CF9314E306808B9FFF70DFFF0682F
:105AD00005424BD1C5B3083568070ED005F0070065
